{
  "contractName": "PatientHealthRecord",
  "abi": [
    {
      "inputs": [
        {
          "internalType": "address",
          "name": "cToken",
          "type": "address"
        },
        {
          "internalType": "address",
          "name": "rToken",
          "type": "address"
        }
      ],
      "stateMutability": "nonpayable",
      "type": "constructor"
    },
    {
      "anonymous": false,
      "inputs": [
        {
          "indexed": true,
          "internalType": "uint256",
          "name": "appointmentId",
          "type": "uint256"
        },
        {
          "indexed": false,
          "internalType": "enum PatientHealthRecord.AppointmentStatus",
          "name": "newStatus",
          "type": "uint8"
        }
      ],
      "name": "AppointmentStatusChanged",
      "type": "event"
    },
    {
      "anonymous": false,
      "inputs": [
        {
          "indexed": false,
          "internalType": "address",
          "name": "value",
          "type": "address"
        }
      ],
      "name": "VariableValueChanged",
      "type": "event"
    },
    {
      "inputs": [
        {
          "internalType": "uint256",
          "name": "",
          "type": "uint256"
        }
      ],
      "name": "acceptedApp",
      "outputs": [
        {
          "internalType": "string",
          "name": "",
          "type": "string"
        }
      ],
      "stateMutability": "view",
      "type": "function",
      "constant": true
    },
    {
      "inputs": [
        {
          "internalType": "uint256",
          "name": "",
          "type": "uint256"
        }
      ],
      "name": "appointments",
      "outputs": [
        {
          "internalType": "uint256",
          "name": "id",
          "type": "uint256"
        },
        {
          "internalType": "address",
          "name": "patient",
          "type": "address"
        },
        {
          "internalType": "string",
          "name": "patientName",
          "type": "string"
        },
        {
          "internalType": "address",
          "name": "provider",
          "type": "address"
        },
        {
          "internalType": "string",
          "name": "providerName",
          "type": "string"
        },
        {
          "internalType": "uint256",
          "name": "tokensPaid",
          "type": "uint256"
        },
        {
          "internalType": "enum PatientHealthRecord.AppointmentStatus",
          "name": "status",
          "type": "uint8"
        }
      ],
      "stateMutability": "view",
      "type": "function",
      "constant": true
    },
    {
      "inputs": [
        {
          "internalType": "uint256",
          "name": "",
          "type": "uint256"
        }
      ],
      "name": "patientList",
      "outputs": [
        {
          "internalType": "address",
          "name": "",
          "type": "address"
        }
      ],
      "stateMutability": "view",
      "type": "function",
      "constant": true
    },
    {
      "inputs": [
        {
          "internalType": "address",
          "name": "",
          "type": "address"
        }
      ],
      "name": "patients",
      "outputs": [
        {
          "internalType": "string",
          "name": "name",
          "type": "string"
        },
        {
          "internalType": "address",
          "name": "addressPatient",
          "type": "address"
        }
      ],
      "stateMutability": "view",
      "type": "function",
      "constant": true
    },
    {
      "inputs": [
        {
          "internalType": "uint256",
          "name": "",
          "type": "uint256"
        }
      ],
      "name": "providerList",
      "outputs": [
        {
          "internalType": "address",
          "name": "",
          "type": "address"
        }
      ],
      "stateMutability": "view",
      "type": "function",
      "constant": true
    },
    {
      "inputs": [
        {
          "internalType": "address",
          "name": "",
          "type": "address"
        }
      ],
      "name": "providers",
      "outputs": [
        {
          "internalType": "string",
          "name": "name",
          "type": "string"
        },
        {
          "internalType": "address",
          "name": "addressHP",
          "type": "address"
        }
      ],
      "stateMutability": "view",
      "type": "function",
      "constant": true
    },
    {
      "inputs": [
        {
          "internalType": "uint256",
          "name": "",
          "type": "uint256"
        }
      ],
      "name": "requestedAppointments",
      "outputs": [
        {
          "internalType": "uint256",
          "name": "id",
          "type": "uint256"
        },
        {
          "internalType": "address",
          "name": "patient",
          "type": "address"
        },
        {
          "internalType": "string",
          "name": "patientName",
          "type": "string"
        },
        {
          "internalType": "address",
          "name": "provider",
          "type": "address"
        },
        {
          "internalType": "string",
          "name": "providerName",
          "type": "string"
        },
        {
          "internalType": "uint256",
          "name": "tokensPaid",
          "type": "uint256"
        },
        {
          "internalType": "enum PatientHealthRecord.AppointmentStatus",
          "name": "status",
          "type": "uint8"
        }
      ],
      "stateMutability": "view",
      "type": "function",
      "constant": true
    },
    {
      "inputs": [
        {
          "internalType": "string",
          "name": "_name",
          "type": "string"
        },
        {
          "internalType": "address",
          "name": "addressPatient",
          "type": "address"
        }
      ],
      "name": "registerPatient",
      "outputs": [],
      "stateMutability": "nonpayable",
      "type": "function"
    },
    {
      "inputs": [],
      "name": "getAllPatients",
      "outputs": [
        {
          "components": [
            {
              "internalType": "string",
              "name": "name",
              "type": "string"
            },
            {
              "internalType": "address",
              "name": "addressPatient",
              "type": "address"
            },
            {
              "internalType": "uint256[]",
              "name": "appointmentHistory",
              "type": "uint256[]"
            }
          ],
          "internalType": "struct PatientHealthRecord.Patient[]",
          "name": "",
          "type": "tuple[]"
        }
      ],
      "stateMutability": "view",
      "type": "function",
      "constant": true
    },
    {
      "inputs": [
        {
          "internalType": "string",
          "name": "_name",
          "type": "string"
        },
        {
          "internalType": "address",
          "name": "addressHP",
          "type": "address"
        }
      ],
      "name": "registerProvider",
      "outputs": [],
      "stateMutability": "nonpayable",
      "type": "function"
    },
    {
      "inputs": [],
      "name": "getAllProviders",
      "outputs": [
        {
          "components": [
            {
              "internalType": "string",
              "name": "name",
              "type": "string"
            },
            {
              "internalType": "address",
              "name": "addressHP",
              "type": "address"
            },
            {
              "internalType": "uint256[]",
              "name": "appointmentHistoryForRecruiter",
              "type": "uint256[]"
            }
          ],
          "internalType": "struct PatientHealthRecord.HealthcareProvider[]",
          "name": "",
          "type": "tuple[]"
        }
      ],
      "stateMutability": "view",
      "type": "function",
      "constant": true
    },
    {
      "inputs": [
        {
          "internalType": "address",
          "name": "_provider",
          "type": "address"
        },
        {
          "internalType": "uint256",
          "name": "_tokensPaid",
          "type": "uint256"
        }
      ],
      "name": "createAppointment",
      "outputs": [],
      "stateMutability": "payable",
      "type": "function",
      "payable": true
    },
    {
      "inputs": [],
      "name": "getAllRequestedAppointments",
      "outputs": [
        {
          "components": [
            {
              "internalType": "uint256",
              "name": "id",
              "type": "uint256"
            },
            {
              "internalType": "address",
              "name": "patient",
              "type": "address"
            },
            {
              "internalType": "string",
              "name": "patientName",
              "type": "string"
            },
            {
              "internalType": "address",
              "name": "provider",
              "type": "address"
            },
            {
              "internalType": "string",
              "name": "providerName",
              "type": "string"
            },
            {
              "internalType": "uint256",
              "name": "tokensPaid",
              "type": "uint256"
            },
            {
              "internalType": "enum PatientHealthRecord.AppointmentStatus",
              "name": "status",
              "type": "uint8"
            }
          ],
          "internalType": "struct PatientHealthRecord.Appointment[]",
          "name": "",
          "type": "tuple[]"
        }
      ],
      "stateMutability": "view",
      "type": "function",
      "constant": true
    },
    {
      "inputs": [],
      "name": "seeLAtestResults",
      "outputs": [
        {
          "components": [
            {
              "internalType": "uint256",
              "name": "id",
              "type": "uint256"
            },
            {
              "internalType": "address",
              "name": "patient",
              "type": "address"
            },
            {
              "internalType": "string",
              "name": "patientName",
              "type": "string"
            },
            {
              "internalType": "address",
              "name": "provider",
              "type": "address"
            },
            {
              "internalType": "string",
              "name": "providerName",
              "type": "string"
            },
            {
              "internalType": "uint256",
              "name": "tokensPaid",
              "type": "uint256"
            },
            {
              "internalType": "enum PatientHealthRecord.AppointmentStatus",
              "name": "status",
              "type": "uint8"
            }
          ],
          "internalType": "struct PatientHealthRecord.Appointment[]",
          "name": "",
          "type": "tuple[]"
        }
      ],
      "stateMutability": "view",
      "type": "function",
      "constant": true
    },
    {
      "inputs": [
        {
          "internalType": "address",
          "name": "_patientAddress",
          "type": "address"
        }
      ],
      "name": "acceptAppointment",
      "outputs": [],
      "stateMutability": "nonpayable",
      "type": "function"
    },
    {
      "inputs": [],
      "name": "getAcceptedAppointments",
      "outputs": [
        {
          "internalType": "string[]",
          "name": "",
          "type": "string[]"
        }
      ],
      "stateMutability": "view",
      "type": "function",
      "constant": true
    },
    {
      "inputs": [
        {
          "internalType": "address",
          "name": "recipient",
          "type": "address"
        },
        {
          "internalType": "uint256",
          "name": "amount",
          "type": "uint256"
        },
        {
          "internalType": "uint256",
          "name": "tokenId",
          "type": "uint256"
        }
      ],
      "name": "transferPaymentAndAssets",
      "outputs": [],
      "stateMutability": "nonpayable",
      "type": "function"
    },
    {
      "inputs": [
        {
          "internalType": "address",
          "name": "_patientAddress",
          "type": "address"
        }
      ],
      "name": "giveTestResults",
      "outputs": [],
      "stateMutability": "nonpayable",
      "type": "function"
    },
    {
      "inputs": [
        {
          "internalType": "address",
          "name": "_provider",
          "type": "address"
        }
      ],
      "name": "bookSecondAppointment",
      "outputs": [],
      "stateMutability": "nonpayable",
      "type": "function"
    },
    {
      "inputs": [
        {
          "internalType": "address",
          "name": "_patient",
          "type": "address"
        }
      ],
      "name": "hasBookedAppointment",
      "outputs": [
        {
          "internalType": "bool",
          "name": "",
          "type": "bool"
        }
      ],
      "stateMutability": "view",
      "type": "function",
      "constant": true
    },
    {
      "inputs": [],
      "name": "getRequestedAppointments",
      "outputs": [
        {
          "internalType": "uint256[]",
          "name": "",
          "type": "uint256[]"
        },
        {
          "internalType": "uint256[]",
          "name": "",
          "type": "uint256[]"
        }
      ],
      "stateMutability": "view",
      "type": "function",
      "constant": true
    },
    {
      "inputs": [],
      "name": "getAllTestResults",
      "outputs": [
        {
          "internalType": "address[]",
          "name": "",
          "type": "address[]"
        },
        {
          "internalType": "string[]",
          "name": "",
          "type": "string[]"
        },
        {
          "internalType": "string[]",
          "name": "",
          "type": "string[]"
        },
        {
          "internalType": "string[]",
          "name": "",
          "type": "string[]"
        }
      ],
      "stateMutability": "view",
      "type": "function",
      "constant": true
    }
  ],
  "bytecode": "0x60806040523480156200001157600080fd5b506040516200547f3803806200547f83398181016040528101906200003791906200012a565b816000806101000a81548173ffffffffffffffffffffffffffffffffffffffff021916908373ffffffffffffffffffffffffffffffffffffffff16021790555080600160006101000a81548173ffffffffffffffffffffffffffffffffffffffff021916908373ffffffffffffffffffffffffffffffffffffffff160217905550505062000171565b600080fd5b600073ffffffffffffffffffffffffffffffffffffffff82169050919050565b6000620000f282620000c5565b9050919050565b6200010481620000e5565b81146200011057600080fd5b50565b6000815190506200012481620000f9565b92915050565b60008060408385031215620001445762000143620000c0565b5b6000620001548582860162000113565b9250506020620001678582860162000113565b9150509250929050565b6152fe80620001816000396000f3fe6080604052600436106101355760003560e01c80637ccb2bd8116100ab578063c67d751a1161006f578063c67d751a14610448578063ca6cd7fa1461048b578063ca72e6c6146104c8578063dad9f35314610505578063e8fd355714610521578063f8ee47141461054a57610135565b80637ccb2bd81461036057806392853abb14610389578063a6401592146103b5578063ae9a1ed7146103e0578063babb1d411461040b57610135565b8063277ca285116100fd578063277ca2851461024d578063390bfd3c146102785780633bb4497c146102b55780635c8966ad146102e057806368d698aa14610309578063788a788f1461033257610135565b80630787bc271461013a5780630869cfbc1461017857806312dc9013146101b657806318a231a9146101f95780632512a36514610224575b600080fd5b34801561014657600080fd5b50610161600480360381019061015c91906138eb565b610573565b60405161016f9291906139b7565b60405180910390f35b34801561018457600080fd5b5061019f600480360381019061019a91906138eb565b61063f565b6040516101ad9291906139b7565b60405180910390f35b3480156101c257600080fd5b506101dd60048036038101906101d89190613a1d565b61070b565b6040516101f09796959493929190613ad0565b60405180910390f35b34801561020557600080fd5b5061020e6108ba565b60405161021b9190613d7d565b60405180910390f35b34801561023057600080fd5b5061024b60048036038101906102469190613ed4565b610b2a565b005b34801561025957600080fd5b50610262610d56565b60405161026f9190613ff2565b60405180910390f35b34801561028457600080fd5b5061029f600480360381019061029a9190613a1d565b610e2f565b6040516102ac9190614014565b60405180910390f35b3480156102c157600080fd5b506102ca610e6e565b6040516102d79190614148565b60405180910390f35b3480156102ec57600080fd5b50610307600480360381019061030291906138eb565b6110de565b005b34801561031557600080fd5b50610330600480360381019061032b91906138eb565b61153d565b005b34801561033e57600080fd5b5061034761197c565b6040516103579493929190614219565b60405180910390f35b34801561036c57600080fd5b5061038760048036038101906103829190613ed4565b611d10565b005b34801561039557600080fd5b5061039e611f3c565b6040516103ac9291906142e9565b60405180910390f35b3480156103c157600080fd5b506103ca61210c565b6040516103d79190614494565b60405180910390f35b3480156103ec57600080fd5b506103f561238a565b6040516104029190614494565b60405180910390f35b34801561041757600080fd5b50610432600480360381019061042d9190613a1d565b612608565b60405161043f9190614014565b60405180910390f35b34801561045457600080fd5b5061046f600480360381019061046a9190613a1d565b612647565b6040516104829796959493929190613ad0565b60405180910390f35b34801561049757600080fd5b506104b260048036038101906104ad9190613a1d565b6127f6565b6040516104bf91906144b6565b60405180910390f35b3480156104d457600080fd5b506104ef60048036038101906104ea91906138eb565b6128a2565b6040516104fc91906144f3565b60405180910390f35b61051f600480360381019061051a919061450e565b612957565b005b34801561052d57600080fd5b506105486004803603810190610543919061454e565b612f7f565b005b34801561055657600080fd5b50610571600480360381019061056c91906138eb565b6130a4565b005b6004602052806000526040600020600091509050806000018054610596906145d0565b80601f01602080910402602001604051908101604052809291908181526020018280546105c2906145d0565b801561060f5780601f106105e45761010080835404028352916020019161060f565b820191906000526020600020905b8154815290600101906020018083116105f257829003601f168201915b5050505050908060010160009054906101000a900473ffffffffffffffffffffffffffffffffffffffff16905082565b6003602052806000526040600020600091509050806000018054610662906145d0565b80601f016020809104026020016040519081016040528092919081815260200182805461068e906145d0565b80156106db5780601f106106b0576101008083540402835291602001916106db565b820191906000526020600020905b8154815290600101906020018083116106be57829003601f168201915b5050505050908060010160009054906101000a900473ffffffffffffffffffffffffffffffffffffffff16905082565b6002818154811061071b57600080fd5b90600052602060002090600702016000915090508060000154908060010160009054906101000a900473ffffffffffffffffffffffffffffffffffffffff169080600201805461076a906145d0565b80601f0160208091040260200160405190810160405280929190818152602001828054610796906145d0565b80156107e35780601f106107b8576101008083540402835291602001916107e3565b820191906000526020600020905b8154815290600101906020018083116107c657829003601f168201915b5050505050908060030160009054906101000a900473ffffffffffffffffffffffffffffffffffffffff169080600401805461081e906145d0565b80601f016020809104026020016040519081016040528092919081815260200182805461084a906145d0565b80156108975780601f1061086c57610100808354040283529160200191610897565b820191906000526020600020905b81548152906001019060200180831161087a57829003601f168201915b5050505050908060050154908060060160009054906101000a900460ff16905087565b6060600060058054905067ffffffffffffffff8111156108dd576108dc613da9565b5b60405190808252806020026020018201604052801561091657816020015b6109036137a1565b8152602001906001900390816108fb5790505b50905060005b600580549050811015610b2257600360006005838154811061094157610940614601565b5b9060005260206000200160009054906101000a900473ffffffffffffffffffffffffffffffffffffffff1673ffffffffffffffffffffffffffffffffffffffff1673ffffffffffffffffffffffffffffffffffffffff1681526020019081526020016000206040518060600160405290816000820180546109c1906145d0565b80601f01602080910402602001604051908101604052809291908181526020018280546109ed906145d0565b8015610a3a5780601f10610a0f57610100808354040283529160200191610a3a565b820191906000526020600020905b815481529060010190602001808311610a1d57829003601f168201915b505050505081526020016001820160009054906101000a900473ffffffffffffffffffffffffffffffffffffffff1673ffffffffffffffffffffffffffffffffffffffff1673ffffffffffffffffffffffffffffffffffffffff16815260200160028201805480602002602001604051908101604052809291908181526020018280548015610ae857602002820191906000526020600020905b815481526020019060010190808311610ad4575b505050505081525050828281518110610b0457610b03614601565b5b60200260200101819052508080610b1a9061465f565b91505061091c565b508091505090565b60405180606001604052808381526020018273ffffffffffffffffffffffffffffffffffffffff168152602001600067ffffffffffffffff811115610b7257610b71613da9565b5b604051908082528060200260200182016040528015610ba05781602001602082028036833780820191505090505b50815250600360008373ffffffffffffffffffffffffffffffffffffffff1673ffffffffffffffffffffffffffffffffffffffff1681526020019081526020016000206000820151816000019081610bf89190614853565b5060208201518160010160006101000a81548173ffffffffffffffffffffffffffffffffffffffff021916908373ffffffffffffffffffffffffffffffffffffffff1602179055506040820151816002019080519060200190610c5c9291906137d8565b5090505060008054906101000a900473ffffffffffffffffffffffffffffffffffffffff1673ffffffffffffffffffffffffffffffffffffffff1663630bddb3826103e86040518363ffffffff1660e01b8152600401610cbd929190614960565b600060405180830381600087803b158015610cd757600080fd5b505af1158015610ceb573d6000803e3d6000fd5b505050506005819080600181540180825580915050600190039060005260206000200160009091909190916101000a81548173ffffffffffffffffffffffffffffffffffffffff021916908373ffffffffffffffffffffffffffffffffffffffff1602179055505050565b60606008805480602002602001604051908101604052809291908181526020016000905b82821015610e26578382906000526020600020018054610d99906145d0565b80601f0160208091040260200160405190810160405280929190818152602001828054610dc5906145d0565b8015610e125780601f10610de757610100808354040283529160200191610e12565b820191906000526020600020905b815481529060010190602001808311610df557829003601f168201915b505050505081526020019060010190610d7a565b50505050905090565b60068181548110610e3f57600080fd5b906000526020600020016000915054906101000a900473ffffffffffffffffffffffffffffffffffffffff1681565b6060600060068054905067ffffffffffffffff811115610e9157610e90613da9565b5b604051908082528060200260200182016040528015610eca57816020015b610eb7613825565b815260200190600190039081610eaf5790505b50905060005b6006805490508110156110d6576004600060068381548110610ef557610ef4614601565b5b9060005260206000200160009054906101000a900473ffffffffffffffffffffffffffffffffffffffff1673ffffffffffffffffffffffffffffffffffffffff1673ffffffffffffffffffffffffffffffffffffffff168152602001908152602001600020604051806060016040529081600082018054610f75906145d0565b80601f0160208091040260200160405190810160405280929190818152602001828054610fa1906145d0565b8015610fee5780601f10610fc357610100808354040283529160200191610fee565b820191906000526020600020905b815481529060010190602001808311610fd157829003601f168201915b505050505081526020016001820160009054906101000a900473ffffffffffffffffffffffffffffffffffffffff1673ffffffffffffffffffffffffffffffffffffffff1673ffffffffffffffffffffffffffffffffffffffff1681526020016002820180548060200260200160405190810160405280929190818152602001828054801561109c57602002820191906000526020600020905b815481526020019060010190808311611088575b5050505050815250508282815181106110b8576110b7614601565b5b602002602001018190525080806110ce9061465f565b915050610ed0565b508091505090565b600073ffffffffffffffffffffffffffffffffffffffff16600360003373ffffffffffffffffffffffffffffffffffffffff1673ffffffffffffffffffffffffffffffffffffffff16815260200190815260200160002060010160009054906101000a900473ffffffffffffffffffffffffffffffffffffffff1673ffffffffffffffffffffffffffffffffffffffff16036111af576040517f08c379a00000000000000000000000000000000000000000000000000000000081526004016111a6906149d5565b60405180910390fd5b6111b8336128a2565b6111f7576040517f08c379a00000000000000000000000000000000000000000000000000000000081526004016111ee90614a67565b60405180910390fd5b60026040518060e0016040528060016002805490506112169190614a87565b81526020013373ffffffffffffffffffffffffffffffffffffffff168152602001600360003373ffffffffffffffffffffffffffffffffffffffff1673ffffffffffffffffffffffffffffffffffffffff1681526020019081526020016000206000018054611284906145d0565b80601f01602080910402602001604051908101604052809291908181526020018280546112b0906145d0565b80156112fd5780601f106112d2576101008083540402835291602001916112fd565b820191906000526020600020905b8154815290600101906020018083116112e057829003601f168201915b505050505081526020018373ffffffffffffffffffffffffffffffffffffffff168152602001600460008573ffffffffffffffffffffffffffffffffffffffff1673ffffffffffffffffffffffffffffffffffffffff1681526020019081526020016000206000018054611370906145d0565b80601f016020809104026020016040519081016040528092919081815260200182805461139c906145d0565b80156113e95780601f106113be576101008083540402835291602001916113e9565b820191906000526020600020905b8154815290600101906020018083116113cc57829003601f168201915b50505050508152602001600081526020016000600281111561140e5761140d613a59565b5b81525090806001815401808255809150506001900390600052602060002090600702016000909190919091506000820151816000015560208201518160010160006101000a81548173ffffffffffffffffffffffffffffffffffffffff021916908373ffffffffffffffffffffffffffffffffffffffff16021790555060408201518160020190816114a09190614853565b5060608201518160030160006101000a81548173ffffffffffffffffffffffffffffffffffffffff021916908373ffffffffffffffffffffffffffffffffffffffff16021790555060808201518160040190816114fd9190614853565b5060a0820151816005015560c08201518160060160006101000a81548160ff0219169083600281111561153357611532613a59565b5b0217905550505050565b600073ffffffffffffffffffffffffffffffffffffffff16600360008373ffffffffffffffffffffffffffffffffffffffff1673ffffffffffffffffffffffffffffffffffffffff16815260200190815260200160002060010160009054906101000a900473ffffffffffffffffffffffffffffffffffffffff1673ffffffffffffffffffffffffffffffffffffffff160361160e576040517f08c379a0000000000000000000000000000000000000000000000000000000008152600401611605906149d5565b60405180910390fd5b600061161982613539565b90506002818154811061162f5761162e614601565b5b906000526020600020906007020160030160009054906101000a900473ffffffffffffffffffffffffffffffffffffffff1673ffffffffffffffffffffffffffffffffffffffff163373ffffffffffffffffffffffffffffffffffffffff16146116ce576040517f08c379a00000000000000000000000000000000000000000000000000000000081526004016116c590614b2d565b60405180910390fd5b600060028111156116e2576116e1613a59565b5b600282815481106116f6576116f5614601565b5b906000526020600020906007020160060160009054906101000a900460ff16600281111561172757611726613a59565b5b14611767576040517f08c379a000000000000000000000000000000000000000000000000000000000815260040161175e90614b99565b60405180910390fd5b6000600360008473ffffffffffffffffffffffffffffffffffffffff1673ffffffffffffffffffffffffffffffffffffffff16815260200190815260200160002060000180546117b6906145d0565b80601f01602080910402602001604051908101604052809291908181526020018280546117e2906145d0565b801561182f5780601f106118045761010080835404028352916020019161182f565b820191906000526020600020905b81548152906001019060200180831161181257829003601f168201915b5050505050905060016002838154811061184c5761184b614601565b5b906000526020600020906007020160060160006101000a81548160ff0219169083600281111561187f5761187e613a59565b5b02179055506001600281111561189857611897613a59565b5b600283815481106118ac576118ab614601565b5b906000526020600020906007020160060160009054906101000a900460ff1660028111156118dd576118dc613a59565b5b1461191d576040517f08c379a000000000000000000000000000000000000000000000000000000000815260040161191490614c05565b60405180910390fd5b6000816040516020016119309190614cad565b60405160208183030381529060405290506008819080600181540180825580915050600190039060005260206000200160009091909190915090816119759190614853565b5050505050565b606080606080600060028054905067ffffffffffffffff8111156119a3576119a2613da9565b5b6040519080825280602002602001820160405280156119d15781602001602082028036833780820191505090505b509050600060028054905067ffffffffffffffff8111156119f5576119f4613da9565b5b604051908082528060200260200182016040528015611a2857816020015b6060815260200190600190039081611a135790505b509050600060028054905067ffffffffffffffff811115611a4c57611a4b613da9565b5b604051908082528060200260200182016040528015611a7f57816020015b6060815260200190600190039081611a6a5790505b509050600060028054905067ffffffffffffffff811115611aa357611aa2613da9565b5b604051908082528060200260200182016040528015611ad657816020015b6060815260200190600190039081611ac15790505b5090506000805b600280549050811015611cf857600280811115611afd57611afc613a59565b5b60028281548110611b1157611b10614601565b5b906000526020600020906007020160060160009054906101000a900460ff166002811115611b4257611b41613a59565b5b03611ce55760028181548110611b5b57611b5a614601565b5b906000526020600020906007020160010160009054906101000a900473ffffffffffffffffffffffffffffffffffffffff16868381518110611ba057611b9f614601565b5b602002602001019073ffffffffffffffffffffffffffffffffffffffff16908173ffffffffffffffffffffffffffffffffffffffff16815250506040518060400160405280600581526020017f47796e6163000000000000000000000000000000000000000000000000000000815250858381518110611c2357611c22614601565b5b60200260200101819052506040518060400160405280600381526020017f4d52490000000000000000000000000000000000000000000000000000000000815250848381518110611c7757611c76614601565b5b60200260200101819052506040518060400160405280600181526020017f3100000000000000000000000000000000000000000000000000000000000000815250838381518110611ccb57611cca614601565b5b60200260200101819052508180611ce19061465f565b9250505b8080611cf09061465f565b915050611add565b50848484849850985098509850505050505090919293565b60405180606001604052808381526020018273ffffffffffffffffffffffffffffffffffffffff168152602001600067ffffffffffffffff811115611d5857611d57613da9565b5b604051908082528060200260200182016040528015611d865781602001602082028036833780820191505090505b50815250600460008373ffffffffffffffffffffffffffffffffffffffff1673ffffffffffffffffffffffffffffffffffffffff1681526020019081526020016000206000820151816000019081611dde9190614853565b5060208201518160010160006101000a81548173ffffffffffffffffffffffffffffffffffffffff021916908373ffffffffffffffffffffffffffffffffffffffff1602179055506040820151816002019080519060200190611e429291906137d8565b509050506006819080600181540180825580915050600190039060005260206000200160009091909190916101000a81548173ffffffffffffffffffffffffffffffffffffffff021916908373ffffffffffffffffffffffffffffffffffffffff16021790555060008054906101000a900473ffffffffffffffffffffffffffffffffffffffff1673ffffffffffffffffffffffffffffffffffffffff1663630bddb3826103e86040518363ffffffff1660e01b8152600401611f06929190614960565b600060405180830381600087803b158015611f2057600080fd5b505af1158015611f34573d6000803e3d6000fd5b505050505050565b606080600060028054905067ffffffffffffffff811115611f6057611f5f613da9565b5b604051908082528060200260200182016040528015611f8e5781602001602082028036833780820191505090505b509050600060028054905067ffffffffffffffff811115611fb257611fb1613da9565b5b604051908082528060200260200182016040528015611fe05781602001602082028036833780820191505090505b5090506000805b6002805490508110156120fe576000600281111561200857612007613a59565b5b6002828154811061201c5761201b614601565b5b906000526020600020906007020160060160009054906101000a900460ff16600281111561204d5761204c613a59565b5b036120eb576002818154811061206657612065614601565b5b90600052602060002090600702016000015484838151811061208b5761208a614601565b5b602002602001018181525050600281815481106120ab576120aa614601565b5b9060005260206000209060070201600501548383815181106120d0576120cf614601565b5b60200260200101818152505081806120e79061465f565b9250505b80806120f69061465f565b915050611fe7565b508282945094505050509091565b60606002805480602002602001604051908101604052809291908181526020016000905b8282101561238157838290600052602060002090600702016040518060e0016040529081600082015481526020016001820160009054906101000a900473ffffffffffffffffffffffffffffffffffffffff1673ffffffffffffffffffffffffffffffffffffffff1673ffffffffffffffffffffffffffffffffffffffff1681526020016002820180546121c3906145d0565b80601f01602080910402602001604051908101604052809291908181526020018280546121ef906145d0565b801561223c5780601f106122115761010080835404028352916020019161223c565b820191906000526020600020905b81548152906001019060200180831161221f57829003601f168201915b505050505081526020016003820160009054906101000a900473ffffffffffffffffffffffffffffffffffffffff1673ffffffffffffffffffffffffffffffffffffffff1673ffffffffffffffffffffffffffffffffffffffff1681526020016004820180546122ab906145d0565b80601f01602080910402602001604051908101604052809291908181526020018280546122d7906145d0565b80156123245780601f106122f957610100808354040283529160200191612324565b820191906000526020600020905b81548152906001019060200180831161230757829003601f168201915b50505050508152602001600582015481526020016006820160009054906101000a900460ff16600281111561235c5761235b613a59565b5b600281111561236e5761236d613a59565b5b8152505081526020019060010190612130565b50505050905090565b60606002805480602002602001604051908101604052809291908181526020016000905b828210156125ff57838290600052602060002090600702016040518060e0016040529081600082015481526020016001820160009054906101000a900473ffffffffffffffffffffffffffffffffffffffff1673ffffffffffffffffffffffffffffffffffffffff1673ffffffffffffffffffffffffffffffffffffffff168152602001600282018054612441906145d0565b80601f016020809104026020016040519081016040528092919081815260200182805461246d906145d0565b80156124ba5780601f1061248f576101008083540402835291602001916124ba565b820191906000526020600020905b81548152906001019060200180831161249d57829003601f168201915b505050505081526020016003820160009054906101000a900473ffffffffffffffffffffffffffffffffffffffff1673ffffffffffffffffffffffffffffffffffffffff1673ffffffffffffffffffffffffffffffffffffffff168152602001600482018054612529906145d0565b80601f0160208091040260200160405190810160405280929190818152602001828054612555906145d0565b80156125a25780601f10612577576101008083540402835291602001916125a2565b820191906000526020600020905b81548152906001019060200180831161258557829003601f168201915b50505050508152602001600582015481526020016006820160009054906101000a900460ff1660028111156125da576125d9613a59565b5b60028111156125ec576125eb613a59565b5b81525050815260200190600101906123ae565b50505050905090565b6005818154811061261857600080fd5b906000526020600020016000915054906101000a900473ffffffffffffffffffffffffffffffffffffffff1681565b6007818154811061265757600080fd5b90600052602060002090600702016000915090508060000154908060010160009054906101000a900473ffffffffffffffffffffffffffffffffffffffff16908060020180546126a6906145d0565b80601f01602080910402602001604051908101604052809291908181526020018280546126d2906145d0565b801561271f5780601f106126f45761010080835404028352916020019161271f565b820191906000526020600020905b81548152906001019060200180831161270257829003601f168201915b5050505050908060030160009054906101000a900473ffffffffffffffffffffffffffffffffffffffff169080600401805461275a906145d0565b80601f0160208091040260200160405190810160405280929190818152602001828054612786906145d0565b80156127d35780601f106127a8576101008083540402835291602001916127d3565b820191906000526020600020905b8154815290600101906020018083116127b657829003601f168201915b5050505050908060050154908060060160009054906101000a900460ff16905087565b6008818154811061280657600080fd5b906000526020600020016000915090508054612821906145d0565b80601f016020809104026020016040519081016040528092919081815260200182805461284d906145d0565b801561289a5780601f1061286f5761010080835404028352916020019161289a565b820191906000526020600020905b81548152906001019060200180831161287d57829003601f168201915b505050505081565b600080600090505b60028054905081101561294c578273ffffffffffffffffffffffffffffffffffffffff16600282815481106128e2576128e1614601565b5b906000526020600020906007020160010160009054906101000a900473ffffffffffffffffffffffffffffffffffffffff1673ffffffffffffffffffffffffffffffffffffffff1603612939576001915050612952565b80806129449061465f565b9150506128aa565b50600090505b919050565b7fe06f2a38b4f1c12fd2b3f5e6af109c4d53e8199c01b3c5c6bbd916c64701cd1c336040516129869190614014565b60405180910390a1600360003373ffffffffffffffffffffffffffffffffffffffff1673ffffffffffffffffffffffffffffffffffffffff16815260200190815260200160002060010160009054906101000a900473ffffffffffffffffffffffffffffffffffffffff1673ffffffffffffffffffffffffffffffffffffffff163373ffffffffffffffffffffffffffffffffffffffff1614612a5e576040517f08c379a0000000000000000000000000000000000000000000000000000000008152600401612a5590614d41565b60405180910390fd5b8060008054906101000a900473ffffffffffffffffffffffffffffffffffffffff1673ffffffffffffffffffffffffffffffffffffffff166370a08231336040518263ffffffff1660e01b8152600401612ab89190614014565b602060405180830381865afa158015612ad5573d6000803e3d6000fd5b505050506040513d601f19601f82011682018060405250810190612af99190614d76565b1015612b3a576040517f08c379a0000000000000000000000000000000000000000000000000000000008152600401612b3190614e15565b60405180910390fd5b60006001600280549050612b4e9190614a87565b905060026040518060e001604052808381526020013373ffffffffffffffffffffffffffffffffffffffff168152602001600360003373ffffffffffffffffffffffffffffffffffffffff1673ffffffffffffffffffffffffffffffffffffffff1681526020019081526020016000206000018054612bcc906145d0565b80601f0160208091040260200160405190810160405280929190818152602001828054612bf8906145d0565b8015612c455780601f10612c1a57610100808354040283529160200191612c45565b820191906000526020600020905b815481529060010190602001808311612c2857829003601f168201915b505050505081526020018573ffffffffffffffffffffffffffffffffffffffff168152602001600460008773ffffffffffffffffffffffffffffffffffffffff1673ffffffffffffffffffffffffffffffffffffffff1681526020019081526020016000206000018054612cb8906145d0565b80601f0160208091040260200160405190810160405280929190818152602001828054612ce4906145d0565b8015612d315780601f10612d0657610100808354040283529160200191612d31565b820191906000526020600020905b815481529060010190602001808311612d1457829003601f168201915b5050505050815260200184815260200160006002811115612d5557612d54613a59565b5b81525090806001815401808255809150506001900390600052602060002090600702016000909190919091506000820151816000015560208201518160010160006101000a81548173ffffffffffffffffffffffffffffffffffffffff021916908373ffffffffffffffffffffffffffffffffffffffff1602179055506040820151816002019081612de79190614853565b5060608201518160030160006101000a81548173ffffffffffffffffffffffffffffffffffffffff021916908373ffffffffffffffffffffffffffffffffffffffff1602179055506080820151816004019081612e449190614853565b5060a0820151816005015560c08201518160060160006101000a81548160ff02191690836002811115612e7a57612e79613a59565b5b02179055505050600360003373ffffffffffffffffffffffffffffffffffffffff1673ffffffffffffffffffffffffffffffffffffffff16815260200190815260200160002060020181908060018154018082558091505060019003906000526020600020016000909190919091505560008054906101000a900473ffffffffffffffffffffffffffffffffffffffff1673ffffffffffffffffffffffffffffffffffffffff1663e6d66ac8338560146040518463ffffffff1660e01b8152600401612f4893929190614e70565b600060405180830381600087803b158015612f6257600080fd5b505af1158015612f76573d6000803e3d6000fd5b50505050505050565b600160009054906101000a900473ffffffffffffffffffffffffffffffffffffffff1673ffffffffffffffffffffffffffffffffffffffff1663ae3afc518433846040518463ffffffff1660e01b8152600401612fde93929190614ea7565b600060405180830381600087803b158015612ff857600080fd5b505af115801561300c573d6000803e3d6000fd5b5050505060008054906101000a900473ffffffffffffffffffffffffffffffffffffffff1673ffffffffffffffffffffffffffffffffffffffff1663e6d66ac83385856040518463ffffffff1660e01b815260040161306d93929190614ea7565b600060405180830381600087803b15801561308757600080fd5b505af115801561309b573d6000803e3d6000fd5b50505050505050565b600073ffffffffffffffffffffffffffffffffffffffff16600360008373ffffffffffffffffffffffffffffffffffffffff1673ffffffffffffffffffffffffffffffffffffffff16815260200190815260200160002060010160009054906101000a900473ffffffffffffffffffffffffffffffffffffffff1673ffffffffffffffffffffffffffffffffffffffff1603613175576040517f08c379a000000000000000000000000000000000000000000000000000000000815260040161316c906149d5565b60405180910390fd5b60006131808261364c565b90506002818154811061319657613195614601565b5b906000526020600020906007020160030160009054906101000a900473ffffffffffffffffffffffffffffffffffffffff1673ffffffffffffffffffffffffffffffffffffffff163373ffffffffffffffffffffffffffffffffffffffff1614613235576040517f08c379a000000000000000000000000000000000000000000000000000000000815260040161322c90614f50565b60405180910390fd5b60008103613278576040517f08c379a000000000000000000000000000000000000000000000000000000000815260040161326f90614fe2565b60405180910390fd5b6001600281111561328c5761328b613a59565b5b600282815481106132a05761329f614601565b5b906000526020600020906007020160060160009054906101000a900460ff1660028111156132d1576132d0613a59565b5b14613311576040517f08c379a00000000000000000000000000000000000000000000000000000000081526004016133089061504e565b60405180910390fd5b600280828154811061332657613325614601565b5b906000526020600020906007020160060160006101000a81548160ff0219169083600281111561335957613358613a59565b5b02179055506000600160009054906101000a900473ffffffffffffffffffffffffffffffffffffffff1673ffffffffffffffffffffffffffffffffffffffff1663adbe188c84336040518363ffffffff1660e01b81526004016133bd929190615152565b6020604051808303816000875af11580156133dc573d6000803e3d6000fd5b505050506040513d601f19601f820116820180604052508101906134009190614d76565b9050600160009054906101000a900473ffffffffffffffffffffffffffffffffffffffff1673ffffffffffffffffffffffffffffffffffffffff16635e65aff830836040518363ffffffff1660e01b815260040161345f9291906151b4565b6020604051808303816000875af115801561347e573d6000803e3d6000fd5b505050506040513d601f19601f820116820180604052508101906134a29190615209565b50600160009054906101000a900473ffffffffffffffffffffffffffffffffffffffff1673ffffffffffffffffffffffffffffffffffffffff16634a179c173385846040518463ffffffff1660e01b815260040161350293929190614ea7565b600060405180830381600087803b15801561351c57600080fd5b505af1158015613530573d6000803e3d6000fd5b50505050505050565b6000806000905060005b600280549050811015613642578373ffffffffffffffffffffffffffffffffffffffff166002828154811061357b5761357a614601565b5b906000526020600020906007020160010160009054906101000a900473ffffffffffffffffffffffffffffffffffffffff1673ffffffffffffffffffffffffffffffffffffffff161480156136265750600060028111156135df576135de613a59565b5b600282815481106135f3576135f2614601565b5b906000526020600020906007020160060160009054906101000a900460ff16600281111561362457613623613a59565b5b145b1561362f578091505b808061363a9061465f565b915050613543565b5080915050919050565b6000806000905060005b6002805490508111613754578373ffffffffffffffffffffffffffffffffffffffff166002828154811061368d5761368c614601565b5b906000526020600020906007020160010160009054906101000a900473ffffffffffffffffffffffffffffffffffffffff1673ffffffffffffffffffffffffffffffffffffffff161480156137385750600160028111156136f1576136f0613a59565b5b6002828154811061370557613704614601565b5b906000526020600020906007020160060160009054906101000a900460ff16600281111561373657613735613a59565b5b145b15613741578091505b808061374c9061465f565b915050613656565b5060008103613798576040517f08c379a000000000000000000000000000000000000000000000000000000000815260040161378f906152a8565b60405180910390fd5b80915050919050565b604051806060016040528060608152602001600073ffffffffffffffffffffffffffffffffffffffff168152602001606081525090565b828054828255906000526020600020908101928215613814579160200282015b828111156138135782518255916020019190600101906137f8565b5b509050613821919061385c565b5090565b604051806060016040528060608152602001600073ffffffffffffffffffffffffffffffffffffffff168152602001606081525090565b5b8082111561387557600081600090555060010161385d565b5090565b6000604051905090565b600080fd5b600080fd5b600073ffffffffffffffffffffffffffffffffffffffff82169050919050565b60006138b88261388d565b9050919050565b6138c8816138ad565b81146138d357600080fd5b50565b6000813590506138e5816138bf565b92915050565b60006020828403121561390157613900613883565b5b600061390f848285016138d6565b91505092915050565b600081519050919050565b600082825260208201905092915050565b60005b83811015613952578082015181840152602081019050613937565b60008484015250505050565b6000601f19601f8301169050919050565b600061397a82613918565b6139848185613923565b9350613994818560208601613934565b61399d8161395e565b840191505092915050565b6139b1816138ad565b82525050565b600060408201905081810360008301526139d1818561396f565b90506139e060208301846139a8565b9392505050565b6000819050919050565b6139fa816139e7565b8114613a0557600080fd5b50565b600081359050613a17816139f1565b92915050565b600060208284031215613a3357613a32613883565b5b6000613a4184828501613a08565b91505092915050565b613a53816139e7565b82525050565b7f4e487b7100000000000000000000000000000000000000000000000000000000600052602160045260246000fd5b60038110613a9957613a98613a59565b5b50565b6000819050613aaa82613a88565b919050565b6000613aba82613a9c565b9050919050565b613aca81613aaf565b82525050565b600060e082019050613ae5600083018a613a4a565b613af260208301896139a8565b8181036040830152613b04818861396f565b9050613b1360608301876139a8565b8181036080830152613b25818661396f565b9050613b3460a0830185613a4a565b613b4160c0830184613ac1565b98975050505050505050565b600081519050919050565b600082825260208201905092915050565b6000819050602082019050919050565b600082825260208201905092915050565b6000613b9582613918565b613b9f8185613b79565b9350613baf818560208601613934565b613bb88161395e565b840191505092915050565b613bcc816138ad565b82525050565b600081519050919050565b600082825260208201905092915050565b6000819050602082019050919050565b613c07816139e7565b82525050565b6000613c198383613bfe565b60208301905092915050565b6000602082019050919050565b6000613c3d82613bd2565b613c478185613bdd565b9350613c5283613bee565b8060005b83811015613c83578151613c6a8882613c0d565b9750613c7583613c25565b925050600181019050613c56565b5085935050505092915050565b60006060830160008301518482036000860152613cad8282613b8a565b9150506020830151613cc26020860182613bc3565b5060408301518482036040860152613cda8282613c32565b9150508091505092915050565b6000613cf38383613c90565b905092915050565b6000602082019050919050565b6000613d1382613b4d565b613d1d8185613b58565b935083602082028501613d2f85613b69565b8060005b85811015613d6b5784840389528151613d4c8582613ce7565b9450613d5783613cfb565b925060208a01995050600181019050613d33565b50829750879550505050505092915050565b60006020820190508181036000830152613d978184613d08565b905092915050565b600080fd5b600080fd5b7f4e487b7100000000000000000000000000000000000000000000000000000000600052604160045260246000fd5b613de18261395e565b810181811067ffffffffffffffff82111715613e0057613dff613da9565b5b80604052505050565b6000613e13613879565b9050613e1f8282613dd8565b919050565b600067ffffffffffffffff821115613e3f57613e3e613da9565b5b613e488261395e565b9050602081019050919050565b82818337600083830152505050565b6000613e77613e7284613e24565b613e09565b905082815260208101848484011115613e9357613e92613da4565b5b613e9e848285613e55565b509392505050565b600082601f830112613ebb57613eba613d9f565b5b8135613ecb848260208601613e64565b91505092915050565b60008060408385031215613eeb57613eea613883565b5b600083013567ffffffffffffffff811115613f0957613f08613888565b5b613f1585828601613ea6565b9250506020613f26858286016138d6565b9150509250929050565b600081519050919050565b600082825260208201905092915050565b6000819050602082019050919050565b6000613f688383613b8a565b905092915050565b6000602082019050919050565b6000613f8882613f30565b613f928185613f3b565b935083602082028501613fa485613f4c565b8060005b85811015613fe05784840389528151613fc18582613f5c565b9450613fcc83613f70565b925060208a01995050600181019050613fa8565b50829750879550505050505092915050565b6000602082019050818103600083015261400c8184613f7d565b905092915050565b600060208201905061402960008301846139a8565b92915050565b600081519050919050565b600082825260208201905092915050565b6000819050602082019050919050565b600060608301600083015184820360008601526140788282613b8a565b915050602083015161408d6020860182613bc3565b50604083015184820360408601526140a58282613c32565b9150508091505092915050565b60006140be838361405b565b905092915050565b6000602082019050919050565b60006140de8261402f565b6140e8818561403a565b9350836020820285016140fa8561404b565b8060005b85811015614136578484038952815161411785826140b2565b9450614122836140c6565b925060208a019950506001810190506140fe565b50829750879550505050505092915050565b6000602082019050818103600083015261416281846140d3565b905092915050565b600081519050919050565b600082825260208201905092915050565b6000819050602082019050919050565b60006141a28383613bc3565b60208301905092915050565b6000602082019050919050565b60006141c68261416a565b6141d08185614175565b93506141db83614186565b8060005b8381101561420c5781516141f38882614196565b97506141fe836141ae565b9250506001810190506141df565b5085935050505092915050565b6000608082019050818103600083015261423381876141bb565b905081810360208301526142478186613f7d565b9050818103604083015261425b8185613f7d565b9050818103606083015261426f8184613f7d565b905095945050505050565b600082825260208201905092915050565b600061429682613bd2565b6142a0818561427a565b93506142ab83613bee565b8060005b838110156142dc5781516142c38882613c0d565b97506142ce83613c25565b9250506001810190506142af565b5085935050505092915050565b60006040820190508181036000830152614303818561428b565b90508181036020830152614317818461428b565b90509392505050565b600081519050919050565b600082825260208201905092915050565b6000819050602082019050919050565b61435581613aaf565b82525050565b600060e0830160008301516143736000860182613bfe565b5060208301516143866020860182613bc3565b506040830151848203604086015261439e8282613b8a565b91505060608301516143b36060860182613bc3565b50608083015184820360808601526143cb8282613b8a565b91505060a08301516143e060a0860182613bfe565b5060c08301516143f360c086018261434c565b508091505092915050565b600061440a838361435b565b905092915050565b6000602082019050919050565b600061442a82614320565b614434818561432b565b9350836020820285016144468561433c565b8060005b85811015614482578484038952815161446385826143fe565b945061446e83614412565b925060208a0199505060018101905061444a565b50829750879550505050505092915050565b600060208201905081810360008301526144ae818461441f565b905092915050565b600060208201905081810360008301526144d0818461396f565b905092915050565b60008115159050919050565b6144ed816144d8565b82525050565b600060208201905061450860008301846144e4565b92915050565b6000806040838503121561452557614524613883565b5b6000614533858286016138d6565b925050602061454485828601613a08565b9150509250929050565b60008060006060848603121561456757614566613883565b5b6000614575868287016138d6565b935050602061458686828701613a08565b925050604061459786828701613a08565b9150509250925092565b7f4e487b7100000000000000000000000000000000000000000000000000000000600052602260045260246000fd5b600060028204905060018216806145e857607f821691505b6020821081036145fb576145fa6145a1565b5b50919050565b7f4e487b7100000000000000000000000000000000000000000000000000000000600052603260045260246000fd5b7f4e487b7100000000000000000000000000000000000000000000000000000000600052601160045260246000fd5b600061466a826139e7565b91507fffffffffffffffffffffffffffffffffffffffffffffffffffffffffffffffff820361469c5761469b614630565b5b600182019050919050565b60008190508160005260206000209050919050565b60006020601f8301049050919050565b600082821b905092915050565b6000600883026147097fffffffffffffffffffffffffffffffffffffffffffffffffffffffffffffffff826146cc565b61471386836146cc565b95508019841693508086168417925050509392505050565b6000819050919050565b600061475061474b614746846139e7565b61472b565b6139e7565b9050919050565b6000819050919050565b61476a83614735565b61477e61477682614757565b8484546146d9565b825550505050565b600090565b614793614786565b61479e818484614761565b505050565b5b818110156147c2576147b760008261478b565b6001810190506147a4565b5050565b601f821115614807576147d8816146a7565b6147e1846146bc565b810160208510156147f0578190505b6148046147fc856146bc565b8301826147a3565b50505b505050565b600082821c905092915050565b600061482a6000198460080261480c565b1980831691505092915050565b60006148438383614819565b9150826002028217905092915050565b61485c82613918565b67ffffffffffffffff81111561487557614874613da9565b5b61487f82546145d0565b61488a8282856147c6565b600060209050601f8311600181146148bd57600084156148ab578287015190505b6148b58582614837565b86555061491d565b601f1984166148cb866146a7565b60005b828110156148f3578489015182556001820191506020850194506020810190506148ce565b86831015614910578489015161490c601f891682614819565b8355505b6001600288020188555050505b505050505050565b6000819050919050565b600061494a61494561494084614925565b61472b565b6139e7565b9050919050565b61495a8161492f565b82525050565b600060408201905061497560008301856139a8565b6149826020830184614951565b9392505050565b7f50617469656e7420646f6573206e6f7420657869737400000000000000000000600082015250565b60006149bf601683613923565b91506149ca82614989565b602082019050919050565b600060208201905081810360008301526149ee816149b2565b9050919050565b7f50617469656e7420686173206e6f7420626f6f6b656420616e206170706f696e60008201527f746d656e742070726576696f75736c7900000000000000000000000000000000602082015250565b6000614a51603083613923565b9150614a5c826149f5565b604082019050919050565b60006020820190508181036000830152614a8081614a44565b9050919050565b6000614a92826139e7565b9150614a9d836139e7565b9250828201905080821115614ab557614ab4614630565b5b92915050565b7f4f6e6c79207468652070726f76696465722063616e206163636570742074686560008201527f206170706f696e746d656e740000000000000000000000000000000000000000602082015250565b6000614b17602c83613923565b9150614b2282614abb565b604082019050919050565b60006020820190508181036000830152614b4681614b0a565b9050919050565b7f4170706f696e746d656e74206973206e6f742072657175657374656400000000600082015250565b6000614b83601c83613923565b9150614b8e82614b4d565b602082019050919050565b60006020820190508181036000830152614bb281614b76565b9050919050565b7f4e6f74206772616e7465642c206f7070706f7373737369656500000000000000600082015250565b6000614bef601983613923565b9150614bfa82614bb9565b602082019050919050565b60006020820190508181036000830152614c1e81614be2565b9050919050565b600081905092915050565b6000614c3b82613918565b614c458185614c25565b9350614c55818560208601613934565b80840191505092915050565b7f202870617469656e74292020202d204163636570746564000000000000000000600082015250565b6000614c97601783614c25565b9150614ca282614c61565b601782019050919050565b6000614cb98284614c30565b9150614cc482614c8a565b915081905092915050565b7f4f6e6c79207468652070617469656e742063616e2063726561746520616e206160008201527f70706f696e746d656e7400000000000000000000000000000000000000000000602082015250565b6000614d2b602a83613923565b9150614d3682614ccf565b604082019050919050565b60006020820190508181036000830152614d5a81614d1e565b9050919050565b600081519050614d70816139f1565b92915050565b600060208284031215614d8c57614d8b613883565b5b6000614d9a84828501614d61565b91505092915050565b7f496e73756666696369656e742062616c616e636520666f72206170706f696e7460008201527f6d656e74207061796d656e740000000000000000000000000000000000000000602082015250565b6000614dff602c83613923565b9150614e0a82614da3565b604082019050919050565b60006020820190508181036000830152614e2e81614df2565b9050919050565b6000819050919050565b6000614e5a614e55614e5084614e35565b61472b565b6139e7565b9050919050565b614e6a81614e3f565b82525050565b6000606082019050614e8560008301866139a8565b614e9260208301856139a8565b614e9f6040830184614e61565b949350505050565b6000606082019050614ebc60008301866139a8565b614ec960208301856139a8565b614ed66040830184613a4a565b949350505050565b7f4f6e6c792070726f7669646572732063616e206769766520746573742072657360008201527f756c747300000000000000000000000000000000000000000000000000000000602082015250565b6000614f3a602483613923565b9150614f4582614ede565b604082019050919050565b60006020820190508181036000830152614f6981614f2d565b9050919050565b7f4e6f20726571756573746564206170706f696e746d656e7420666f756e64206660008201527f6f72207468652070617469656e74000000000000000000000000000000000000602082015250565b6000614fcc602e83613923565b9150614fd782614f70565b604082019050919050565b60006020820190508181036000830152614ffb81614fbf565b9050919050565b7f4170706f696e746d656e74206973206e6f74206772616e746564000000000000600082015250565b6000615038601a83613923565b915061504382615002565b602082019050919050565b600060208201905081810360008301526150678161502b565b9050919050565b7f47796e6163000000000000000000000000000000000000000000000000000000600082015250565b60006150a4600583613923565b91506150af8261506e565b602082019050919050565b7f4d52490000000000000000000000000000000000000000000000000000000000600082015250565b60006150f0600383613923565b91506150fb826150ba565b602082019050919050565b7f3100000000000000000000000000000000000000000000000000000000000000600082015250565b600061513c600183613923565b915061514782615106565b602082019050919050565b600060a08201905061516760008301856139a8565b818103602083015261517881615097565b9050818103604083015261518b816150e3565b9050818103606083015261519e8161512f565b90506151ad60808301846139a8565b9392505050565b60006040820190506151c960008301856139a8565b6151d66020830184613a4a565b9392505050565b6151e6816144d8565b81146151f157600080fd5b50565b600081519050615203816151dd565b92915050565b60006020828403121561521f5761521e613883565b5b600061522d848285016151f4565b91505092915050565b7f4e6f20726571756573746564206170706f696e746d656e7420666f756e64206660008201527f6f72207468652070617469656e7420697974206372616c6b7300000000000000602082015250565b6000615292603983613923565b915061529d82615236565b604082019050919050565b600060208201905081810360008301526152c181615285565b905091905056fea26469706673582212206a114f6b387e59d9f80ee8f79ace2c470b7648c0103057f10df298784253f45064736f6c63430008150033",
  "immutableReferences": {},
  "source": "// SPDX-License-Identifier: MIT\r\npragma solidity ^0.8.20;\r\n\r\nimport \"@openzeppelin/contracts/token/ERC20/ERC20.sol\";\r\nimport \"./healthcareERC20.sol\";\r\nimport \"./healthcareERC721.sol\";\r\n\r\ncontract PatientHealthRecord {\r\n    \r\n    enum AppointmentStatus { Requested, Granted, Completed }\r\n\r\n    \r\n    PatientCurrencyTokens private currencyTokens;\r\n    TestRecordToken private testTokens;\r\n   \r\n\r\n    constructor(address cToken, address rToken){\r\n        currencyTokens= PatientCurrencyTokens (cToken);\r\n        testTokens= TestRecordToken(rToken);\r\n       \r\n    }\r\n\r\n    struct Appointment {\r\n        uint256 id;\r\n        address patient;\r\n        string patientName;\r\n        address provider;\r\n        string providerName;\r\n        uint256 tokensPaid;\r\n        AppointmentStatus status; // Status of the appointment\r\n    }\r\n\r\n    struct Patient {\r\n        string name;\r\n        address addressPatient;\r\n        uint256[] appointmentHistory;\r\n    }\r\n\r\n    struct HealthcareProvider {\r\n        string name;\r\n        address addressHP;\r\n        uint256[] appointmentHistoryForRecruiter;\r\n    }\r\n\r\n    Appointment[] public appointments;\r\n    mapping(address => Patient) public patients;\r\n    mapping(address => HealthcareProvider) public providers;\r\n    address[] public patientList;\r\n    address[] public providerList;\r\n    Appointment[] public requestedAppointments;\r\n    string[] public acceptedApp;\r\n\r\n    \r\n\r\n     function registerPatient(string memory _name, address addressPatient) public {\r\n        patients[addressPatient] = Patient({\r\n            name: _name,\r\n            addressPatient: addressPatient,\r\n            appointmentHistory: new uint256[](0)\r\n        });\r\n        currencyTokens.sendInitialToken(addressPatient, 1000);\r\n        patientList.push(addressPatient);\r\n    }\r\n\r\n    function getAllPatients() public view returns (Patient[] memory) {\r\n        Patient[] memory result = new Patient[](patientList.length);\r\n        for (uint256 i = 0; i < patientList.length; i++) {\r\n            result[i] = patients[patientList[i]];\r\n        }\r\n        return result;\r\n    }\r\n\r\n\r\n    function registerProvider(string memory _name, address addressHP) public {\r\n         providers[addressHP] = HealthcareProvider({name: _name,addressHP: addressHP,appointmentHistoryForRecruiter: new uint256[](0) // Initialize an empty array\r\n         \r\n        });\r\n        providerList.push(addressHP);\r\n        currencyTokens.sendInitialToken(addressHP, 1000);\r\n    }\r\n\r\n\r\n    function getAllProviders() public view returns (HealthcareProvider[] memory) {\r\n        HealthcareProvider[] memory result = new HealthcareProvider[](providerList.length);\r\n        for (uint256 i = 0; i < providerList.length; i++) {\r\n            result[i] = providers[providerList[i]];\r\n        }\r\n        return result;\r\n    }\r\n\r\n\r\n\r\n    event VariableValueChanged(address value);\r\n\r\n\r\n    function createAppointment(address _provider,uint256 _tokensPaid) public payable  {\r\n       emit VariableValueChanged(msg.sender);\r\n        require(msg.sender == patients[msg.sender].addressPatient, \"Only the patient can create an appointment\");\r\n        require(currencyTokens.balanceOf(msg.sender) >= _tokensPaid, \"Insufficient balance for appointment payment\");\r\n        uint256 appointmentId = appointments.length + 1; // The new appointment's ID\r\n\r\n        appointments.push(\r\n            Appointment({\r\n                id: appointmentId,\r\n                patient: msg.sender,\r\n                patientName : patients[msg.sender].name,\r\n                providerName: providers[_provider].name,\r\n                provider: _provider,\r\n                tokensPaid: _tokensPaid,\r\n                status: AppointmentStatus.Requested\r\n            })\r\n        );\r\n\r\n        // Add the appointment ID to the patient's appointment history\r\n        patients[msg.sender].appointmentHistory.push(appointmentId);\r\n        \r\n        \r\n        // Additional logic for handling payments.\r\n        currencyTokens.sendTokens(msg.sender, _provider, 20);\r\n    }\r\n\r\n\r\n    function getAllRequestedAppointments() public view returns (Appointment[] memory) {\r\n        return appointments;\r\n    }\r\n\r\n    \r\n\r\n   function getLatestRequestedAppointmentForAA(address _patientAddress) internal view returns (uint256) {\r\n    uint256 latestAppointmentId = 0;\r\n    for (uint256 i = 0; i < appointments.length; i++) {\r\n        if (appointments[i].patient == _patientAddress && appointments[i].status == AppointmentStatus.Requested) {\r\n            latestAppointmentId = i;\r\n        }\r\n    }\r\n    \r\n    return latestAppointmentId;\r\n}\r\n\r\nfunction getLatestRequestedAppointment(address _patientAddress) internal view returns (uint256) {\r\n    uint256 latestAppointmentId = 0;\r\n    for (uint256 i = 0; i <= appointments.length; i++) {\r\n        if (appointments[i].patient == _patientAddress && appointments[i].status == AppointmentStatus.Granted) {\r\n            latestAppointmentId = i;\r\n        }\r\n    }\r\n    require(latestAppointmentId != 0, \"No requested appointment found for the patient iyt cralks\");\r\n    return latestAppointmentId;\r\n}\r\n\r\n\r\n  function seeLAtestResults() public view returns (Appointment[] memory) {\r\n        return appointments;\r\n      \r\n}\r\n\r\n\r\n    function acceptAppointment(address _patientAddress) public {\r\n        require(patients[_patientAddress].addressPatient != address(0), \"Patient does not exist\");\r\n        uint256 latestRequestedAppointment = getLatestRequestedAppointmentForAA(_patientAddress);\r\n        require(msg.sender == appointments[latestRequestedAppointment].provider, \"Only the provider can accept the appointment\");\r\n        require(appointments[latestRequestedAppointment].status == AppointmentStatus.Requested, \"Appointment is not requested\");\r\n\r\n        string memory patientName = patients[_patientAddress].name;\r\n\r\n        appointments[latestRequestedAppointment].status = AppointmentStatus.Granted; // Update the status to \"appointment granted\"\r\n        require(appointments[latestRequestedAppointment].status == AppointmentStatus.Granted,\"Not granted, opppossssiee\");\r\n        string memory acceptedAppointment = string(abi.encodePacked(patientName, \" (patient)   - Accepted\"));\r\n\r\n        acceptedApp.push(acceptedAppointment);\r\n}\r\n\r\n\r\n\r\n    function getAcceptedAppointments() public view returns (string[] memory) {\r\n   \r\n        return acceptedApp;\r\n\r\n    }\r\n\r\n\r\n\r\n//ERC1155 implementation\r\nfunction transferPaymentAndAssets(address recipient, uint256 amount,uint256 tokenId) external {\r\n       \r\n        testTokens.transferTestRecord(recipient,msg.sender, tokenId);\r\n        currencyTokens.sendTokens(msg.sender, recipient,amount);\r\n}\r\n\r\n\r\n\r\n\r\nfunction giveTestResults(address _patientAddress) public {\r\n    require(patients[_patientAddress].addressPatient != address(0), \"Patient does not exist\");\r\n    uint256 latestRequestedAppointment = getLatestRequestedAppointment(_patientAddress);\r\n    require(msg.sender == appointments[latestRequestedAppointment].provider, \"Only providers can give test results\");\r\n    require(latestRequestedAppointment != 0, \"No requested appointment found for the patient\");\r\n    require(appointments[latestRequestedAppointment].status == AppointmentStatus.Granted, \"Appointment is not granted\");\r\n\r\n    appointments[latestRequestedAppointment].status = AppointmentStatus.Completed; // Update the status to \"appointment completed\"\r\n    uint256 tokenId=testTokens.transferOwnershipOf721(_patientAddress, \"Gynac\", \"MRI\", \"1\",msg.sender);\r\n    \r\n    testTokens.approveContract(address(this), tokenId);\r\n    \r\n    testTokens.transferTestRecordHealthcare(msg.sender, _patientAddress,tokenId);\r\n}\r\n\r\n    event AppointmentStatusChanged(uint256 indexed appointmentId, AppointmentStatus newStatus);\r\n    function bookSecondAppointment(address _provider) public {\r\n        require(patients[msg.sender].addressPatient != address(0), \"Patient does not exist\");\r\n        require(hasBookedAppointment(msg.sender), \"Patient has not booked an appointment previously\");\r\n\r\n        // Create a new appointment for the patient with status \"Requested\"\r\n        appointments.push(\r\n            Appointment({\r\n                id: appointments.length + 1,\r\n                patient: msg.sender,\r\n                patientName : patients[msg.sender].name,\r\n                providerName: providers[_provider].name,\r\n                provider: _provider,\r\n                tokensPaid: 0, // No initial tokens paid\r\n                status: AppointmentStatus.Requested\r\n            })\r\n        );\r\n\r\n        // Transfer ERC-1155 token that holds money (ERC-20) and test results (ERC-721) to the patient\r\n        //uint256 tokenId = generateTokenId(msg.sender);\r\n        // token1155.safeTransferFrom(address(this), msg.sender, tokenId, 1, \"\");\r\n    }\r\n \r\n    function hasBookedAppointment(address _patient) public view returns (bool) {\r\n        for (uint256 i = 0; i < appointments.length; i++) {\r\n            if (appointments[i].patient == _patient) {\r\n                return true;\r\n            }\r\n        }\r\n        return false;\r\n    }\r\n\r\n    function generateTokenId(address _patient) internal view returns (uint256) {\r\n        // Generate a unique token ID for the patient, e.g., based on their address\r\n        return uint256(keccak256(abi.encodePacked(_patient, block.number, block.timestamp)));\r\n    }\r\n\r\n\r\n   \r\n\r\n\r\n\r\nfunction getRequestedAppointments() public view returns (uint256[] memory, uint256[] memory) {\r\n    uint256[] memory requestedIds = new uint256[](appointments.length);\r\n    uint256[] memory requestedPayments = new uint256[](appointments.length);\r\n    uint256 count = 0;\r\n    for (uint256 i = 0; i < appointments.length; i++) {\r\n        if (appointments[i].status == AppointmentStatus.Requested) {\r\n            requestedIds[count] = appointments[i].id;\r\n            requestedPayments[count] = appointments[i].tokensPaid;\r\n            count++;\r\n        }\r\n    }\r\n    return (requestedIds, requestedPayments);\r\n}\r\n\r\n\r\n\r\nfunction getAllTestResults() public view returns (address[] memory, string[] memory, string[] memory, string[] memory) {\r\n    address[] memory patientAddresses = new address[](appointments.length);\r\n    string[] memory testTypes = new string[](appointments.length);\r\n    string[] memory testNames = new string[](appointments.length);\r\n    string[] memory testResults = new string[](appointments.length);\r\n    uint256 count = 0;\r\n    for (uint256 i = 0; i < appointments.length; i++) {\r\n        if (appointments[i].status == AppointmentStatus.Completed) {\r\n            patientAddresses[count] = appointments[i].patient;\r\n            testTypes[count] = \"Gynac\"; // Replace with the actual test type\r\n            testNames[count] = \"MRI\"; // Replace with the actual test name\r\n            testResults[count] = \"1\"; // Replace with the actual test result\r\n            count++;\r\n        }\r\n    }\r\n    return (patientAddresses, testTypes, testNames, testResults);\r\n}\r\n\r\n// function getAllRequestedAppointments() public view returns (string[] memory patientNames, string[] memory providerNames) {\r\n//     uint256 appointmentCount = appointments.length;\r\n//     patientNames = new string[](appointmentCount);\r\n//     providerNames = new string[](appointmentCount);\r\n\r\n//     for (uint256 i = 0; i < appointmentCount; i++) {\r\n//         patientNames[i] = appointments[i].patientName;\r\n//         providerNames[i] = appointments[i].providerName;\r\n//     }\r\n\r\n//     return (patientNames, providerNames);\r\n// }\r\n\r\n// function getAllRequestedAppointments() public view returns (string[] memory formattedAppointments) {\r\n//     uint256 appointmentCount = appointments.length;\r\n//     formattedAppointments = new string[](appointmentCount);\r\n\r\n//     for (uint256 i = 0; i < appointmentCount; i++) {\r\n//         string memory formattedAppointment = string(\r\n//             abi.encodePacked(\r\n//                 \"[patient name : \",\r\n//                 appointments[i].patientName,\r\n//                 \", provider name : \",\r\n//                 appointments[i].providerName,\r\n//                 \"]\"\r\n//             )\r\n//         );\r\n//         formattedAppointments[i] = formattedAppointment;\r\n//     }\r\n\r\n//     return formattedAppointments;\r\n// }\r\n\r\n\r\n}",
  "sourcePath": "C:\\Users\\priya\\OneDrive\\Desktop\\Blockchain Phase 2\\healthportalm\\healthportal-contract\\contracts\\healthcareERC1155.sol",
  "compiler": {
    "name": "solc",
    "version": "0.8.21+commit.d9974bed.Emscripten.clang"
  },
  "schemaVersion": "3.4.16",
  "updatedAt": "2023-11-18T03:47:53.020Z",
  "networkType": "ethereum",
  "devdoc": {
    "kind": "dev",
    "methods": {},
    "version": 1
  },
  "userdoc": {
    "kind": "user",
    "methods": {},
    "version": 1
  }
}